{
  "contractName": "EnlistmentToContract",
  "abi": [
    {
      "inputs": [
        {
          "internalType": "string",
          "name": "landlordEmail",
          "type": "string"
        },
        {
          "internalType": "string",
          "name": "streetName",
          "type": "string"
        },
        {
          "internalType": "int256",
          "name": "floorNr",
          "type": "int256"
        },
        {
          "internalType": "int256",
          "name": "apartmentNr",
          "type": "int256"
        },
        {
          "internalType": "int256",
          "name": "houseNr",
          "type": "int256"
        },
        {
          "internalType": "int256",
          "name": "postalCode",
          "type": "int256"
        }
      ],
      "payable": false,
      "stateMutability": "nonpayable",
      "type": "constructor"
    },
    {
      "constant": true,
      "inputs": [],
      "name": "locked",
      "outputs": [
        {
          "internalType": "bool",
          "name": "",
          "type": "bool"
        }
      ],
      "payable": false,
      "stateMutability": "view",
      "type": "function"
    },
    {
      "constant": true,
      "inputs": [],
      "name": "getOwner",
      "outputs": [
        {
          "internalType": "address",
          "name": "",
          "type": "address"
        }
      ],
      "payable": false,
      "stateMutability": "view",
      "type": "function"
    },
    {
      "constant": true,
      "inputs": [],
      "name": "getLandlord",
      "outputs": [
        {
          "internalType": "string",
          "name": "",
          "type": "string"
        }
      ],
      "payable": false,
      "stateMutability": "view",
      "type": "function"
    },
    {
      "constant": true,
      "inputs": [],
      "name": "getEnlistment",
      "outputs": [
        {
          "internalType": "string",
          "name": "",
          "type": "string"
        },
        {
          "internalType": "int256",
          "name": "",
          "type": "int256"
        },
        {
          "internalType": "int256",
          "name": "",
          "type": "int256"
        },
        {
          "internalType": "int256",
          "name": "",
          "type": "int256"
        },
        {
          "internalType": "int256",
          "name": "",
          "type": "int256"
        }
      ],
      "payable": false,
      "stateMutability": "view",
      "type": "function"
    },
    {
      "constant": false,
      "inputs": [
        {
          "internalType": "int256",
          "name": "amount",
          "type": "int256"
        },
        {
          "internalType": "string",
          "name": "tenantName",
          "type": "string"
        },
        {
          "internalType": "string",
          "name": "tenantEmail",
          "type": "string"
        }
      ],
      "name": "sendOffer",
      "outputs": [],
      "payable": true,
      "stateMutability": "payable",
      "type": "function"
    },
    {
      "constant": false,
      "inputs": [
        {
          "internalType": "string",
          "name": "tenantEmail",
          "type": "string"
        }
      ],
      "name": "cancelOffer",
      "outputs": [],
      "payable": true,
      "stateMutability": "payable",
      "type": "function"
    },
    {
      "constant": true,
      "inputs": [
        {
          "internalType": "string",
          "name": "tenantEmail",
          "type": "string"
        }
      ],
      "name": "getOffer",
      "outputs": [
        {
          "internalType": "bool",
          "name": "",
          "type": "bool"
        },
        {
          "internalType": "int256",
          "name": "",
          "type": "int256"
        },
        {
          "internalType": "string",
          "name": "",
          "type": "string"
        },
        {
          "internalType": "string",
          "name": "",
          "type": "string"
        },
        {
          "internalType": "enum EnlistmentToContract.OfferStatus",
          "name": "",
          "type": "uint8"
        }
      ],
      "payable": false,
      "stateMutability": "view",
      "type": "function"
    },
    {
      "constant": false,
      "inputs": [
        {
          "internalType": "bool",
          "name": "result",
          "type": "bool"
        },
        {
          "internalType": "string",
          "name": "tenantEmail",
          "type": "string"
        }
      ],
      "name": "reviewOffer",
      "outputs": [],
      "payable": true,
      "stateMutability": "payable",
      "type": "function"
    },
    {
      "constant": false,
      "inputs": [
        {
          "internalType": "string",
          "name": "tenantEmail",
          "type": "string"
        },
        {
          "internalType": "string",
          "name": "landlordName",
          "type": "string"
        },
        {
          "internalType": "string",
          "name": "agreementTenantName",
          "type": "string"
        },
        {
          "internalType": "string",
          "name": "agreementTenantEmail",
          "type": "string"
        },
        {
          "internalType": "uint256",
          "name": "leaseStart",
          "type": "uint256"
        },
        {
          "internalType": "uint256",
          "name": "handoverDate",
          "type": "uint256"
        },
        {
          "internalType": "uint256",
          "name": "leasePeriod",
          "type": "uint256"
        },
        {
          "internalType": "string",
          "name": "otherTerms",
          "type": "string"
        },
        {
          "internalType": "string",
          "name": "hashStr",
          "type": "string"
        }
      ],
      "name": "submitDraft",
      "outputs": [],
      "payable": true,
      "stateMutability": "payable",
      "type": "function"
    },
    {
      "constant": true,
      "inputs": [
        {
          "internalType": "string",
          "name": "tenantEmail",
          "type": "string"
        }
      ],
      "name": "getAgreementParticipants",
      "outputs": [
        {
          "internalType": "string",
          "name": "",
          "type": "string"
        },
        {
          "internalType": "string",
          "name": "",
          "type": "string"
        },
        {
          "internalType": "string",
          "name": "",
          "type": "string"
        }
      ],
      "payable": false,
      "stateMutability": "view",
      "type": "function"
    },
    {
      "constant": true,
      "inputs": [
        {
          "internalType": "string",
          "name": "tenantEmail",
          "type": "string"
        }
      ],
      "name": "getAgreementDetails",
      "outputs": [
        {
          "internalType": "int256",
          "name": "",
          "type": "int256"
        },
        {
          "internalType": "uint256",
          "name": "",
          "type": "uint256"
        },
        {
          "internalType": "uint256",
          "name": "",
          "type": "uint256"
        },
        {
          "internalType": "uint256",
          "name": "",
          "type": "uint256"
        },
        {
          "internalType": "string",
          "name": "",
          "type": "string"
        }
      ],
      "payable": false,
      "stateMutability": "view",
      "type": "function"
    },
    {
      "constant": true,
      "inputs": [
        {
          "internalType": "string",
          "name": "tenantEmail",
          "type": "string"
        }
      ],
      "name": "getAgreementHashes",
      "outputs": [
        {
          "internalType": "string",
          "name": "",
          "type": "string"
        },
        {
          "internalType": "string",
          "name": "",
          "type": "string"
        },
        {
          "internalType": "string",
          "name": "",
          "type": "string"
        }
      ],
      "payable": false,
      "stateMutability": "view",
      "type": "function"
    },
    {
      "constant": true,
      "inputs": [
        {
          "internalType": "string",
          "name": "tenantEmail",
          "type": "string"
        }
      ],
      "name": "getAgreementStatus",
      "outputs": [
        {
          "internalType": "enum EnlistmentToContract.AgreementStatus",
          "name": "",
          "type": "uint8"
        }
      ],
      "payable": false,
      "stateMutability": "view",
      "type": "function"
    },
    {
      "constant": false,
      "inputs": [
        {
          "internalType": "string",
          "name": "tenantEmail",
          "type": "string"
        },
        {
          "internalType": "bool",
          "name": "result",
          "type": "bool"
        }
      ],
      "name": "reviewAgreement",
      "outputs": [],
      "payable": true,
      "stateMutability": "payable",
      "type": "function"
    },
    {
      "constant": false,
      "inputs": [
        {
          "internalType": "string",
          "name": "tenantEmail",
          "type": "string"
        },
        {
          "internalType": "string",
          "name": "landlordSignedHash",
          "type": "string"
        }
      ],
      "name": "landlordSignAgreement",
      "outputs": [],
      "payable": true,
      "stateMutability": "payable",
      "type": "function"
    },
    {
      "constant": false,
      "inputs": [
        {
          "internalType": "string",
          "name": "tenantEmail",
          "type": "string"
        },
        {
          "internalType": "string",
          "name": "tenantSignedHash",
          "type": "string"
        }
      ],
      "name": "tenantSignAgreement",
      "outputs": [],
      "payable": true,
      "stateMutability": "payable",
      "type": "function"
    },
    {
      "constant": false,
      "inputs": [
        {
          "internalType": "string",
          "name": "tenantEmail",
          "type": "string"
        }
      ],
      "name": "cancelAgreement",
      "outputs": [],
      "payable": true,
      "stateMutability": "payable",
      "type": "function"
    },
    {
      "constant": false,
      "inputs": [
        {
          "internalType": "string",
          "name": "tenantEmail",
          "type": "string"
        }
      ],
      "name": "receiveFirstMonthRent",
      "outputs": [],
      "payable": true,
      "stateMutability": "payable",
      "type": "function"
    },
    {
      "constant": false,
      "inputs": [
        {
          "internalType": "string",
          "name": "tenantEmail",
          "type": "string"
        },
        {
          "internalType": "uint256",
          "name": "amount",
          "type": "uint256"
        }
      ],
      "name": "receiveMonthlyRent",
      "outputs": [],
      "payable": true,
      "stateMutability": "payable",
      "type": "function"
    }
  ],
  "bytecode": "0x60806040526000600260006101000a81548160ff0219169083151502179055503480156200002c57600080fd5b5060405162004a4338038062004a43833981810160405260c08110156200005257600080fd5b81019080805160405193929190846401000000008211156200007357600080fd5b838201915060208201858111156200008a57600080fd5b8251866001820283011164010000000082111715620000a857600080fd5b8083526020830192505050908051906020019080838360005b83811015620000de578082015181840152602081019050620000c1565b50505050905090810190601f1680156200010c5780820380516001836020036101000a031916815260200191505b50604052602001805160405193929190846401000000008211156200013057600080fd5b838201915060208201858111156200014757600080fd5b82518660018202830111640100000000821117156200016557600080fd5b8083526020830192505050908051906020019080838360005b838110156200019b5780820151818401526020810190506200017e565b50505050905090810190601f168015620001c95780820380516001836020036101000a031916815260200191505b50604052602001805190602001909291908051906020019092919080519060200190929190805190602001909291905050506040518060a00160405280868152602001858152602001848152602001838152602001828152506003600082015181600001908051906020019062000242929190620002d3565b50602082015181600101556040820151816002015560608201518160030155608082015181600401559050508560019080519060200190620002869291906200035a565b50336000806101000a81548173ffffffffffffffffffffffffffffffffffffffff021916908373ffffffffffffffffffffffffffffffffffffffff16021790555050505050505062000409565b828054600181600116156101000203166002900490600052602060002090601f016020900481019282601f106200031657805160ff191683800117855562000347565b8280016001018555821562000347579182015b828111156200034657825182559160200191906001019062000329565b5b509050620003569190620003e1565b5090565b828054600181600116156101000203166002900490600052602060002090601f016020900481019282601f106200039d57805160ff1916838001178555620003ce565b82800160010185558215620003ce579182015b82811115620003cd578251825591602001919060010190620003b0565b5b509050620003dd9190620003e1565b5090565b6200040691905b8082111562000402576000816000905550600101620003e8565b5090565b90565b61462a80620004196000396000f3fe6080604052600436106101135760003560e01c8063673a95ef116100a0578063d441a15211610064578063d441a15214611265578063d6ce41121461147e578063ec2b2a1214611543578063f278f7841461162d578063f502236d146116e857610113565b8063673a95ef14610d2b57806371ca158714610df25780637a5101161461100b578063893d20e8146111df578063cf3090121461123657610113565b80632c863d84116100e75780632c863d84146108e65780632d63ce2714610a425780632fcc176d14610afd57806331ae8ed014610bc45780634d45780e14610c7057610113565b8062ff22c61461011857806303746e061461026a578063222a7af9146103bc578063265adc3314610789575b600080fd5b6102686004803603604081101561012e57600080fd5b810190808035906020019064010000000081111561014b57600080fd5b82018360208201111561015d57600080fd5b8035906020019184600183028401116401000000008311171561017f57600080fd5b91908080601f016020809104026020016040519081016040528093929190818152602001838380828437600081840152601f19601f820116905080830192505050505050509192919290803590602001906401000000008111156101e257600080fd5b8201836020820111156101f457600080fd5b8035906020019184600183028401116401000000008311171561021657600080fd5b91908080601f016020809104026020016040519081016040528093929190818152602001838380828437600081840152601f19601f820116905080830192505050505050509192919290505050611778565b005b6103ba6004803603604081101561028057600080fd5b810190808035906020019064010000000081111561029d57600080fd5b8201836020820111156102af57600080fd5b803590602001918460018302840111640100000000831117156102d157600080fd5b91908080601f016020809104026020016040519081016040528093929190818152602001838380828437600081840152601f19601f8201169050808301925050505050505091929192908035906020019064010000000081111561033457600080fd5b82018360208201111561034657600080fd5b8035906020019184600183028401116401000000008311171561036857600080fd5b91908080601f016020809104026020016040519081016040528093929190818152602001838380828437600081840152601f19601f820116905080830192505050505050509192919290505050611ab0565b005b61078760048036036101208110156103d357600080fd5b81019080803590602001906401000000008111156103f057600080fd5b82018360208201111561040257600080fd5b8035906020019184600183028401116401000000008311171561042457600080fd5b91908080601f016020809104026020016040519081016040528093929190818152602001838380828437600081840152601f19601f8201169050808301925050505050505091929192908035906020019064010000000081111561048757600080fd5b82018360208201111561049957600080fd5b803590602001918460018302840111640100000000831117156104bb57600080fd5b91908080601f016020809104026020016040519081016040528093929190818152602001838380828437600081840152601f19601f8201169050808301925050505050505091929192908035906020019064010000000081111561051e57600080fd5b82018360208201111561053057600080fd5b8035906020019184600183028401116401000000008311171561055257600080fd5b91908080601f016020809104026020016040519081016040528093929190818152602001838380828437600081840152601f19601f820116905080830192505050505050509192919290803590602001906401000000008111156105b557600080fd5b8201836020820111156105c757600080fd5b803590602001918460018302840111640100000000831117156105e957600080fd5b91908080601f016020809104026020016040519081016040528093929190818152602001838380828437600081840152601f19601f8201169050808301925050505050505091929192908035906020019092919080359060200190929190803590602001909291908035906020019064010000000081111561066a57600080fd5b82018360208201111561067c57600080fd5b8035906020019184600183028401116401000000008311171561069e57600080fd5b91908080601f016020809104026020016040519081016040528093929190818152602001838380828437600081840152601f19601f8201169050808301925050505050505091929192908035906020019064010000000081111561070157600080fd5b82018360208201111561071357600080fd5b8035906020019184600183028401116401000000008311171561073557600080fd5b91908080601f016020809104026020016040519081016040528093929190818152602001838380828437600081840152601f19601f820116905080830192505050505050509192919290505050611e1d565b005b34801561079557600080fd5b5061084f600480360360208110156107ac57600080fd5b81019080803590602001906401000000008111156107c957600080fd5b8201836020820111156107db57600080fd5b803590602001918460018302840111640100000000831117156107fd57600080fd5b91908080601f016020809104026020016040519081016040528093929190818152602001838380828437600081840152601f19601f8201169050808301925050505050505091929192905050506123f9565b6040518086815260200185815260200184815260200183815260200180602001828103825283818151815260200191508051906020019080838360005b838110156108a757808201518184015260208101905061088c565b50505050905090810190601f1680156108d45780820380516001836020036101000a031916815260200191505b50965050505050505060405180910390f35b610a40600480360360608110156108fc57600080fd5b81019080803590602001909291908035906020019064010000000081111561092357600080fd5b82018360208201111561093557600080fd5b8035906020019184600183028401116401000000008311171561095757600080fd5b91908080601f016020809104026020016040519081016040528093929190818152602001838380828437600081840152601f19601f820116905080830192505050505050509192919290803590602001906401000000008111156109ba57600080fd5b8201836020820111156109cc57600080fd5b803590602001918460018302840111640100000000831117156109ee57600080fd5b91908080601f016020809104026020016040519081016040528093929190818152602001838380828437600081840152601f19601f82011690508083019250505050505050919291929050505061258f565b005b610afb60048036036020811015610a5857600080fd5b8101908080359060200190640100000000811115610a7557600080fd5b820183602082011115610a8757600080fd5b80359060200191846001830284011164010000000083111715610aa957600080fd5b91908080601f016020809104026020016040519081016040528093929190818152602001838380828437600081840152601f19601f820116905080830192505050505050509192919290505050612902565b005b610bc260048036036040811015610b1357600080fd5b8101908080351515906020019092919080359060200190640100000000811115610b3c57600080fd5b820183602082011115610b4e57600080fd5b80359060200191846001830284011164010000000083111715610b7057600080fd5b91908080601f016020809104026020016040519081016040528093929190818152602001838380828437600081840152601f19601f820116905080830192505050505050509192919290505050612d61565b005b348015610bd057600080fd5b50610bd9612f85565b6040518080602001868152602001858152602001848152602001838152602001828103825287818151815260200191508051906020019080838360005b83811015610c31578082015181840152602081019050610c16565b50505050905090810190601f168015610c5e5780820380516001836020036101000a031916815260200191505b50965050505050505060405180910390f35b610d2960048036036020811015610c8657600080fd5b8101908080359060200190640100000000811115610ca357600080fd5b820183602082011115610cb557600080fd5b80359060200191846001830284011164010000000083111715610cd757600080fd5b91908080601f016020809104026020016040519081016040528093929190818152602001838380828437600081840152601f19601f8201169050808301925050505050505091929192905050506130af565b005b610df060048036036040811015610d4157600080fd5b8101908080359060200190640100000000811115610d5e57600080fd5b820183602082011115610d7057600080fd5b80359060200191846001830284011164010000000083111715610d9257600080fd5b91908080601f016020809104026020016040519081016040528093929190818152602001838380828437600081840152601f19601f820116905080830192505050505050509192919290803515159060200190929190505050613365565b005b348015610dfe57600080fd5b50610eb860048036036020811015610e1557600080fd5b8101908080359060200190640100000000811115610e3257600080fd5b820183602082011115610e4457600080fd5b80359060200191846001830284011164010000000083111715610e6657600080fd5b91908080601f016020809104026020016040519081016040528093929190818152602001838380828437600081840152601f19601f820116905080830192505050505050509192919290505050613629565b60405180806020018060200180602001848103845287818151815260200191508051906020019080838360005b83811015610f00578082015181840152602081019050610ee5565b50505050905090810190601f168015610f2d5780820380516001836020036101000a031916815260200191505b50848103835286818151815260200191508051906020019080838360005b83811015610f66578082015181840152602081019050610f4b565b50505050905090810190601f168015610f935780820380516001836020036101000a031916815260200191505b50848103825285818151815260200191508051906020019080838360005b83811015610fcc578082015181840152602081019050610fb1565b50505050905090810190601f168015610ff95780820380516001836020036101000a031916815260200191505b50965050505050505060405180910390f35b34801561101757600080fd5b506110d16004803603602081101561102e57600080fd5b810190808035906020019064010000000081111561104b57600080fd5b82018360208201111561105d57600080fd5b8035906020019184600183028401116401000000008311171561107f57600080fd5b91908080601f016020809104026020016040519081016040528093929190818152602001838380828437600081840152601f19601f8201169050808301925050505050505091929192905050506138e2565b604051808615151515815260200185815260200180602001806020018460038111156110f957fe5b60ff168152602001838103835286818151815260200191508051906020019080838360005b8381101561113957808201518184015260208101905061111e565b50505050905090810190601f1680156111665780820380516001836020036101000a031916815260200191505b50838103825285818151815260200191508051906020019080838360005b8381101561119f578082015181840152602081019050611184565b50505050905090810190601f1680156111cc5780820380516001836020036101000a031916815260200191505b5097505050505050505060405180910390f35b3480156111eb57600080fd5b506111f4613b2d565b604051808273ffffffffffffffffffffffffffffffffffffffff1673ffffffffffffffffffffffffffffffffffffffff16815260200191505060405180910390f35b34801561124257600080fd5b5061124b613baf565b604051808215151515815260200191505060405180910390f35b34801561127157600080fd5b5061132b6004803603602081101561128857600080fd5b81019080803590602001906401000000008111156112a557600080fd5b8201836020820111156112b757600080fd5b803590602001918460018302840111640100000000831117156112d957600080fd5b91908080601f016020809104026020016040519081016040528093929190818152602001838380828437600081840152601f19601f820116905080830192505050505050509192919290505050613bc2565b60405180806020018060200180602001848103845287818151815260200191508051906020019080838360005b83811015611373578082015181840152602081019050611358565b50505050905090810190601f1680156113a05780820380516001836020036101000a031916815260200191505b50848103835286818151815260200191508051906020019080838360005b838110156113d95780820151818401526020810190506113be565b50505050905090810190601f1680156114065780820380516001836020036101000a031916815260200191505b50848103825285818151815260200191508051906020019080838360005b8381101561143f578082015181840152602081019050611424565b50505050905090810190601f16801561146c5780820380516001836020036101000a031916815260200191505b50965050505050505060405180910390f35b6115416004803603604081101561149457600080fd5b81019080803590602001906401000000008111156114b157600080fd5b8201836020820111156114c357600080fd5b803590602001918460018302840111640100000000831117156114e557600080fd5b91908080601f016020809104026020016040519081016040528093929190818152602001838380828437600081840152601f19601f82011690508083019250505050505050919291929080359060200190929190505050613e7b565b005b34801561154f57600080fd5b506116096004803603602081101561156657600080fd5b810190808035906020019064010000000081111561158357600080fd5b82018360208201111561159557600080fd5b803590602001918460018302840111640100000000831117156115b757600080fd5b91908080601f016020809104026020016040519081016040528093929190818152602001838380828437600081840152601f19601f8201169050808301925050505050505091929192905050506140ab565b6040518082600781111561161957fe5b60ff16815260200191505060405180910390f35b6116e66004803603602081101561164357600080fd5b810190808035906020019064010000000081111561166057600080fd5b82018360208201111561167257600080fd5b8035906020019184600183028401116401000000008311171561169457600080fd5b91908080601f016020809104026020016040519081016040528093929190818152602001838380828437600081840152601f19601f82011690508083019250505050505050919291929050505061418d565b005b3480156116f457600080fd5b506116fd614399565b6040518080602001828103825283818151815260200191508051906020019080838360005b8381101561173d578082015181840152602081019050611722565b50505050905090810190601f16801561176a5780820380516001836020036101000a031916815260200191505b509250505060405180910390f35b6000809054906101000a900473ffffffffffffffffffffffffffffffffffffffff1673ffffffffffffffffffffffffffffffffffffffff163373ffffffffffffffffffffffffffffffffffffffff16146117d157600080fd5b81600115156008826040518082805190602001908083835b6020831061180c57805182526020820191506020810190506020830392506117e9565b6001836020036101000a038019825116818451168082178552505050505050905001915050908152602001604051809103902060000160009054906101000a900460ff1615151461185c57600080fd5b60038381600381111561186b57fe5b6008826040518082805190602001908083835b602083106118a1578051825260208201915060208101905060208303925061187e565b6001836020036101000a038019825116818451168082178552505050505050905001915050908152602001604051809103902060040160009054906101000a900460ff1660038111156118f057fe5b146118fa57600080fd5b60058581600781111561190957fe5b6009826040518082805190602001908083835b6020831061193f578051825260208201915060208101905060208303925061191c565b6001836020036101000a0380198251168184511680821785525050505050509050019150509081526020016040518091039020600b0160009054906101000a900460ff16600781111561198e57fe5b1461199857600080fd5b856009886040518082805190602001908083835b602083106119cf57805182526020820191506020810190506020830392506119ac565b6001836020036101000a0380198251168184511680821785525050505050509050019150509081526020016040518091039020600a019080519060200190611a18929190614494565b5060066009886040518082805190602001908083835b60208310611a515780518252602082019150602081019050602083039250611a2e565b6001836020036101000a0380198251168184511680821785525050505050509050019150509081526020016040518091039020600b0160006101000a81548160ff02191690836007811115611aa257fe5b021790555050505050505050565b6000809054906101000a900473ffffffffffffffffffffffffffffffffffffffff1673ffffffffffffffffffffffffffffffffffffffff163373ffffffffffffffffffffffffffffffffffffffff1614611b0957600080fd5b600260009054906101000a900460ff1615611b2357600080fd5b81600115156008826040518082805190602001908083835b60208310611b5e5780518252602082019150602081019050602083039250611b3b565b6001836020036101000a038019825116818451168082178552505050505050905001915050908152602001604051809103902060000160009054906101000a900460ff16151514611bae57600080fd5b600383816003811115611bbd57fe5b6008826040518082805190602001908083835b60208310611bf35780518252602082019150602081019050602083039250611bd0565b6001836020036101000a038019825116818451168082178552505050505050905001915050908152602001604051809103902060040160009054906101000a900460ff166003811115611c4257fe5b14611c4c57600080fd5b600385816007811115611c5b57fe5b6009826040518082805190602001908083835b60208310611c915780518252602082019150602081019050602083039250611c6e565b6001836020036101000a0380198251168184511680821785525050505050509050019150509081526020016040518091039020600b0160009054906101000a900460ff166007811115611ce057fe5b14611cea57600080fd5b856009886040518082805190602001908083835b60208310611d215780518252602082019150602081019050602083039250611cfe565b6001836020036101000a03801982511681845116808217855250505050505090500191505090815260200160405180910390206009019080519060200190611d6a929190614494565b5060056009886040518082805190602001908083835b60208310611da35780518252602082019150602081019050602083039250611d80565b6001836020036101000a0380198251168184511680821785525050505050509050019150509081526020016040518091039020600b0160006101000a81548160ff02191690836007811115611df457fe5b02179055506001600260006101000a81548160ff02191690831515021790555050505050505050565b6000809054906101000a900473ffffffffffffffffffffffffffffffffffffffff1673ffffffffffffffffffffffffffffffffffffffff163373ffffffffffffffffffffffffffffffffffffffff1614611e7657600080fd5b88600115156008826040518082805190602001908083835b60208310611eb15780518252602082019150602081019050602083039250611e8e565b6001836020036101000a038019825116818451168082178552505050505050905001915050908152602001604051809103902060000160009054906101000a900460ff16151514611f0157600080fd5b60038a816003811115611f1057fe5b6008826040518082805190602001908083835b60208310611f465780518252602082019150602081019050602083039250611f23565b6001836020036101000a038019825116818451168082178552505050505050905001915050908152602001604051809103902060040160009054906101000a900460ff166003811115611f9557fe5b14611f9f57600080fd5b8b60006007811115611fad57fe5b6009826040518082805190602001908083835b60208310611fe35780518252602082019150602081019050602083039250611fc0565b6001836020036101000a0380198251168184511680821785525050505050509050019150509081526020016040518091039020600b0160009054906101000a900460ff16600781111561203257fe5b14806120cd57506002600781111561204657fe5b6009826040518082805190602001908083835b6020831061207c5780518252602082019150602081019050602083039250612059565b6001836020036101000a0380198251168184511680821785525050505050509050019150509081526020016040518091039020600b0160009054906101000a900460ff1660078111156120cb57fe5b145b806121675750600460078111156120e057fe5b6009826040518082805190602001908083835b6020831061211657805182526020820191506020810190506020830392506120f3565b6001836020036101000a0380198251168184511680821785525050505050509050019150509081526020016040518091039020600b0160009054906101000a900460ff16600781111561216557fe5b145b61217057600080fd5b600060088e6040518082805190602001908083835b602083106121a85780518252602082019150602081019050602083039250612185565b6001836020036101000a03801982511681845116808217855250505050505090500191505090815260200160405180910390206001015490506040518061018001604052808e81526020018d81526020018c81526020018281526020018b81526020018a81526020018981526020018881526020018781526020016040518060200160405280600081525081526020016040518060200160405280600081525081526020016001600781111561225a57fe5b81525060098f6040518082805190602001908083835b602083106122935780518252602082019150602081019050602083039250612270565b6001836020036101000a038019825116818451168082178552505050505050905001915050908152602001604051809103902060008201518160000190805190602001906122e2929190614514565b5060208201518160010190805190602001906122ff929190614514565b50604082015181600201908051906020019061231c929190614514565b50606082015181600301556080820151816004015560a0820151816005015560c0820151816006015560e0820151816007019080519060200190612361929190614514565b5061010082015181600801908051906020019061237f929190614514565b5061012082015181600901908051906020019061239d929190614514565b5061014082015181600a0190805190602001906123bb929190614514565b5061016082015181600b0160006101000a81548160ff021916908360078111156123e157fe5b02179055509050505050505050505050505050505050565b60008060008060606000809054906101000a900473ffffffffffffffffffffffffffffffffffffffff1673ffffffffffffffffffffffffffffffffffffffff163373ffffffffffffffffffffffffffffffffffffffff161461245a57600080fd5b60006009876040518082805190602001908083835b60208310612492578051825260208201915060208101905060208303925061246f565b6001836020036101000a03801982511681845116808217855250505050505090500191505090815260200160405180910390209050806003015481600401548260050154836006015484600701808054600181600116156101000203166002900480601f0160208091040260200160405190810160405280929190818152602001828054600181600116156101000203166002900480156125745780601f1061254957610100808354040283529160200191612574565b820191906000526020600020905b81548152906001019060200180831161255757829003601f168201915b50505050509050955095509550955095505091939590929450565b6000809054906101000a900473ffffffffffffffffffffffffffffffffffffffff1673ffffffffffffffffffffffffffffffffffffffff163373ffffffffffffffffffffffffffffffffffffffff16146125e857600080fd5b80600015156008826040518082805190602001908083835b602083106126235780518252602082019150602081019050602083039250612600565b6001836020036101000a038019825116818451168082178552505050505050905001915050908152602001604051809103902060000160009054906101000a900460ff161515148061270457506001600381111561267d57fe5b6008826040518082805190602001908083835b602083106126b35780518252602082019150602081019050602083039250612690565b6001836020036101000a038019825116818451168082178552505050505050905001915050908152602001604051809103902060040160009054906101000a900460ff16600381111561270257fe5b145b8061279e57506002600381111561271757fe5b6008826040518082805190602001908083835b6020831061274d578051825260208201915060208101905060208303925061272a565b6001836020036101000a038019825116818451168082178552505050505050905001915050908152602001604051809103902060040160009054906101000a900460ff16600381111561279c57fe5b145b6127a757600080fd5b600260009054906101000a900460ff16156127c157600080fd5b6127c9614594565b6040518060a00160405280600115158152602001868152602001858152602001848152602001600060038111156127fc57fe5b8152509050806008846040518082805190602001908083835b602083106128385780518252602082019150602081019050602083039250612815565b6001836020036101000a038019825116818451168082178552505050505050905001915050908152602001604051809103902060008201518160000160006101000a81548160ff0219169083151502179055506020820151816001015560408201518160020190805190602001906128b1929190614514565b5060608201518160030190805190602001906128ce929190614514565b5060808201518160040160006101000a81548160ff021916908360038111156128f357fe5b02179055509050505050505050565b6000809054906101000a900473ffffffffffffffffffffffffffffffffffffffff1673ffffffffffffffffffffffffffffffffffffffff163373ffffffffffffffffffffffffffffffffffffffff161461295b57600080fd5b80600115156008826040518082805190602001908083835b602083106129965780518252602082019150602081019050602083039250612973565b6001836020036101000a038019825116818451168082178552505050505050905001915050908152602001604051809103902060000160009054906101000a900460ff161515146129e657600080fd5b8160006008826040518082805190602001908083835b60208310612a1f57805182526020820191506020810190506020830392506129fc565b6001836020036101000a038019825116818451168082178552505050505050905001915050908152602001604051809103902060040160009054906101000a900460ff16905060006003811115612a7257fe5b816003811115612a7e57fe5b1480612a9f5750600380811115612a9157fe5b816003811115612a9d57fe5b145b612aa857600080fd5b60006009836040518082805190602001908083835b60208310612ae05780518252602082019150602081019050602083039250612abd565b6001836020036101000a0380198251168184511680821785525050505050509050019150509081526020016040518091039020600b0160009054906101000a900460ff16905060046007811115612b3357fe5b816007811115612b3f57fe5b1480612b61575060066007811115612b5357fe5b816007811115612b5f57fe5b145b80612b815750600780811115612b7357fe5b816007811115612b7f57fe5b145b15612b8b57600080fd5b60026008866040518082805190602001908083835b60208310612bc35780518252602082019150602081019050602083039250612ba0565b6001836020036101000a038019825116818451168082178552505050505050905001915050908152602001604051809103902060040160006101000a81548160ff02191690836003811115612c1457fe5b021790555060006007811115612c2657fe5b6009866040518082805190602001908083835b60208310612c5c5780518252602082019150602081019050602083039250612c39565b6001836020036101000a0380198251168184511680821785525050505050509050019150509081526020016040518091039020600b0160009054906101000a900460ff166007811115612cab57fe5b14612d3f5760046009866040518082805190602001908083835b60208310612ce85780518252602082019150602081019050602083039250612cc5565b6001836020036101000a0380198251168184511680821785525050505050509050019150509081526020016040518091039020600b0160006101000a81548160ff02191690836007811115612d3957fe5b02179055505b6000600260006101000a81548160ff0219169083151502179055505050505050565b6000809054906101000a900473ffffffffffffffffffffffffffffffffffffffff1673ffffffffffffffffffffffffffffffffffffffff163373ffffffffffffffffffffffffffffffffffffffff1614612dba57600080fd5b80600115156008826040518082805190602001908083835b60208310612df55780518252602082019150602081019050602083039250612dd2565b6001836020036101000a038019825116818451168082178552505050505050905001915050908152602001604051809103902060000160009054906101000a900460ff16151514612e4557600080fd5b600082816003811115612e5457fe5b6008826040518082805190602001908083835b60208310612e8a5780518252602082019150602081019050602083039250612e67565b6001836020036101000a038019825116818451168082178552505050505050905001915050908152602001604051809103902060040160009054906101000a900460ff166003811115612ed957fe5b14612ee357600080fd5b84612eef576001612ef2565b60035b6008856040518082805190602001908083835b60208310612f285780518252602082019150602081019050602083039250612f05565b6001836020036101000a038019825116818451168082178552505050505050905001915050908152602001604051809103902060040160006101000a81548160ff02191690836003811115612f7957fe5b02179055505050505050565b60606000806000806000809054906101000a900473ffffffffffffffffffffffffffffffffffffffff1673ffffffffffffffffffffffffffffffffffffffff163373ffffffffffffffffffffffffffffffffffffffff1614612fe657600080fd5b60036000016003600101546003600201546003800154600360040154848054600181600116156101000203166002900480601f0160208091040260200160405190810160405280929190818152602001828054600181600116156101000203166002900480156130975780601f1061306c57610100808354040283529160200191613097565b820191906000526020600020905b81548152906001019060200180831161307a57829003601f168201915b50505050509450945094509450945094509091929394565b6000809054906101000a900473ffffffffffffffffffffffffffffffffffffffff1673ffffffffffffffffffffffffffffffffffffffff163373ffffffffffffffffffffffffffffffffffffffff161461310857600080fd5b80600115156008826040518082805190602001908083835b602083106131435780518252602082019150602081019050602083039250613120565b6001836020036101000a038019825116818451168082178552505050505050905001915050908152602001604051809103902060000160009054906101000a900460ff1615151461319357600080fd5b6003828160038111156131a257fe5b6008826040518082805190602001908083835b602083106131d857805182526020820191506020810190506020830392506131b5565b6001836020036101000a038019825116818451168082178552505050505050905001915050908152602001604051809103902060040160009054906101000a900460ff16600381111561322757fe5b1461323157600080fd5b60068481600781111561324057fe5b6009826040518082805190602001908083835b602083106132765780518252602082019150602081019050602083039250613253565b6001836020036101000a0380198251168184511680821785525050505050509050019150509081526020016040518091039020600b0160009054906101000a900460ff1660078111156132c557fe5b146132cf57600080fd5b60076009876040518082805190602001908083835b6020831061330757805182526020820191506020810190506020830392506132e4565b6001836020036101000a0380198251168184511680821785525050505050509050019150509081526020016040518091039020600b0160006101000a81548160ff0219169083600781111561335857fe5b0217905550505050505050565b6000809054906101000a900473ffffffffffffffffffffffffffffffffffffffff1673ffffffffffffffffffffffffffffffffffffffff163373ffffffffffffffffffffffffffffffffffffffff16146133be57600080fd5b81600115156008826040518082805190602001908083835b602083106133f957805182526020820191506020810190506020830392506133d6565b6001836020036101000a038019825116818451168082178552505050505050905001915050908152602001604051809103902060000160009054906101000a900460ff1615151461344957600080fd5b60038381600381111561345857fe5b6008826040518082805190602001908083835b6020831061348e578051825260208201915060208101905060208303925061346b565b6001836020036101000a038019825116818451168082178552505050505050905001915050908152602001604051809103902060040160009054906101000a900460ff1660038111156134dd57fe5b146134e757600080fd5b6001858160078111156134f657fe5b6009826040518082805190602001908083835b6020831061352c5780518252602082019150602081019050602083039250613509565b6001836020036101000a0380198251168184511680821785525050505050509050019150509081526020016040518091039020600b0160009054906101000a900460ff16600781111561357b57fe5b1461358557600080fd5b85613591576002613594565b60035b6009886040518082805190602001908083835b602083106135ca57805182526020820191506020810190506020830392506135a7565b6001836020036101000a0380198251168184511680821785525050505050509050019150509081526020016040518091039020600b0160006101000a81548160ff0219169083600781111561361b57fe5b021790555050505050505050565b60608060606000809054906101000a900473ffffffffffffffffffffffffffffffffffffffff1673ffffffffffffffffffffffffffffffffffffffff163373ffffffffffffffffffffffffffffffffffffffff161461368757600080fd5b60006009856040518082805190602001908083835b602083106136bf578051825260208201915060208101905060208303925061369c565b6001836020036101000a03801982511681845116808217855250505050505090500191505090815260200160405180910390209050806000018160010182600201828054600181600116156101000203166002900480601f0160208091040260200160405190810160405280929190818152602001828054600181600116156101000203166002900480156137955780601f1061376a57610100808354040283529160200191613795565b820191906000526020600020905b81548152906001019060200180831161377857829003601f168201915b50505050509250818054600181600116156101000203166002900480601f0160208091040260200160405190810160405280929190818152602001828054600181600116156101000203166002900480156138315780601f1061380657610100808354040283529160200191613831565b820191906000526020600020905b81548152906001019060200180831161381457829003601f168201915b50505050509150808054600181600116156101000203166002900480601f0160208091040260200160405190810160405280929190818152602001828054600181600116156101000203166002900480156138cd5780601f106138a2576101008083540402835291602001916138cd565b820191906000526020600020905b8154815290600101906020018083116138b057829003601f168201915b50505050509050935093509350509193909250565b60008060608060008060009054906101000a900473ffffffffffffffffffffffffffffffffffffffff1673ffffffffffffffffffffffffffffffffffffffff163373ffffffffffffffffffffffffffffffffffffffff161461394357600080fd5b60006008876040518082805190602001908083835b6020831061397b5780518252602082019150602081019050602083039250613958565b6001836020036101000a038019825116818451168082178552505050505050905001915050908152602001604051809103902090508060000160009054906101000a900460ff16816001015482600201836003018460040160009054906101000a900460ff16828054600181600116156101000203166002900480601f016020809104026020016040519081016040528092919081815260200182805460018160011615610100020316600290048015613a765780601f10613a4b57610100808354040283529160200191613a76565b820191906000526020600020905b815481529060010190602001808311613a5957829003601f168201915b50505050509250818054600181600116156101000203166002900480601f016020809104026020016040519081016040528092919081815260200182805460018160011615610100020316600290048015613b125780601f10613ae757610100808354040283529160200191613b12565b820191906000526020600020905b815481529060010190602001808311613af557829003601f168201915b50505050509150955095509550955095505091939590929450565b60008060009054906101000a900473ffffffffffffffffffffffffffffffffffffffff1673ffffffffffffffffffffffffffffffffffffffff163373ffffffffffffffffffffffffffffffffffffffff1614613b8857600080fd5b6000809054906101000a900473ffffffffffffffffffffffffffffffffffffffff16905090565b600260009054906101000a900460ff1681565b60608060606000809054906101000a900473ffffffffffffffffffffffffffffffffffffffff1673ffffffffffffffffffffffffffffffffffffffff163373ffffffffffffffffffffffffffffffffffffffff1614613c2057600080fd5b60006009856040518082805190602001908083835b60208310613c585780518252602082019150602081019050602083039250613c35565b6001836020036101000a03801982511681845116808217855250505050505090500191505090815260200160405180910390209050806008018160090182600a01828054600181600116156101000203166002900480601f016020809104026020016040519081016040528092919081815260200182805460018160011615610100020316600290048015613d2e5780601f10613d0357610100808354040283529160200191613d2e565b820191906000526020600020905b815481529060010190602001808311613d1157829003601f168201915b50505050509250818054600181600116156101000203166002900480601f016020809104026020016040519081016040528092919081815260200182805460018160011615610100020316600290048015613dca5780601f10613d9f57610100808354040283529160200191613dca565b820191906000526020600020905b815481529060010190602001808311613dad57829003601f168201915b50505050509150808054600181600116156101000203166002900480601f016020809104026020016040519081016040528092919081815260200182805460018160011615610100020316600290048015613e665780601f10613e3b57610100808354040283529160200191613e66565b820191906000526020600020905b815481529060010190602001808311613e4957829003601f168201915b50505050509050935093509350509193909250565b6000809054906101000a900473ffffffffffffffffffffffffffffffffffffffff1673ffffffffffffffffffffffffffffffffffffffff163373ffffffffffffffffffffffffffffffffffffffff1614613ed457600080fd5b81600115156008826040518082805190602001908083835b60208310613f0f5780518252602082019150602081019050602083039250613eec565b6001836020036101000a038019825116818451168082178552505050505050905001915050908152602001604051809103902060000160009054906101000a900460ff16151514613f5f57600080fd5b600383816003811115613f6e57fe5b6008826040518082805190602001908083835b60208310613fa45780518252602082019150602081019050602083039250613f81565b6001836020036101000a038019825116818451168082178552505050505050905001915050908152602001604051809103902060040160009054906101000a900460ff166003811115613ff357fe5b14613ffd57600080fd5b60078581600781111561400c57fe5b6009826040518082805190602001908083835b60208310614042578051825260208201915060208101905060208303925061401f565b6001836020036101000a0380198251168184511680821785525050505050509050019150509081526020016040518091039020600b0160009054906101000a900460ff16600781111561409157fe5b1461409b57600080fd5b85600a8190555050505050505050565b60008060009054906101000a900473ffffffffffffffffffffffffffffffffffffffff1673ffffffffffffffffffffffffffffffffffffffff163373ffffffffffffffffffffffffffffffffffffffff161461410657600080fd5b60006009836040518082805190602001908083835b6020831061413e578051825260208201915060208101905060208303925061411b565b6001836020036101000a0380198251168184511680821785525050505050509050019150509081526020016040518091039020905080600b0160009054906101000a900460ff16915050919050565b6000809054906101000a900473ffffffffffffffffffffffffffffffffffffffff1673ffffffffffffffffffffffffffffffffffffffff163373ffffffffffffffffffffffffffffffffffffffff16146141e657600080fd5b8060006009826040518082805190602001908083835b6020831061421f57805182526020820191506020810190506020830392506141fc565b6001836020036101000a0380198251168184511680821785525050505050509050019150509081526020016040518091039020600b0160009054906101000a900460ff1690506004600781111561427257fe5b81600781111561427e57fe5b14806142a057506006600781111561429257fe5b81600781111561429e57fe5b145b806142c057506007808111156142b257fe5b8160078111156142be57fe5b145b806142e15750600260078111156142d357fe5b8160078111156142df57fe5b145b156142eb57600080fd5b60046009846040518082805190602001908083835b602083106143235780518252602082019150602081019050602083039250614300565b6001836020036101000a0380198251168184511680821785525050505050509050019150509081526020016040518091039020600b0160006101000a81548160ff0219169083600781111561437457fe5b02179055506000600260006101000a81548160ff021916908315150217905550505050565b60606000809054906101000a900473ffffffffffffffffffffffffffffffffffffffff1673ffffffffffffffffffffffffffffffffffffffff163373ffffffffffffffffffffffffffffffffffffffff16146143f457600080fd5b60018054600181600116156101000203166002900480601f01602080910402602001604051908101604052809291908181526020018280546001816001161561010002031660029004801561448a5780601f1061445f5761010080835404028352916020019161448a565b820191906000526020600020905b81548152906001019060200180831161446d57829003601f168201915b5050505050905090565b828054600181600116156101000203166002900490600052602060002090601f016020900481019282601f106144d557805160ff1916838001178555614503565b82800160010185558215614503579182015b828111156145025782518255916020019190600101906144e7565b5b50905061451091906145d0565b5090565b828054600181600116156101000203166002900490600052602060002090601f016020900481019282601f1061455557805160ff1916838001178555614583565b82800160010185558215614583579182015b82811115614582578251825591602001919060010190614567565b5b50905061459091906145d0565b5090565b6040518060a00160405280600015158152602001600081526020016060815260200160608152602001600060038111156145ca57fe5b81525090565b6145f291905b808211156145ee5760008160009055506001016145d6565b5090565b9056fea265627a7a72315820ba89c8555f908283e3059cb0fe7ee74b3dbf420ac1aa695855e3bba61788ea7164736f6c63430005100032",
  "source": "pragma solidity ^0.5.0;\r\n\r\nimport \"./RentToContract.sol\";\r\n\r\n\r\ncontract EnlistmentToContract {\r\n\r\n    // MAIN VARIABLES THE CONTRACT WILL BE WORKING WITH\r\n\r\n    address owner;\r\n    string landlord;\r\n    bool public locked = false;\r\n    Enlistment enlistment;\r\n    // \r\n    mapping(string => Offer) tenantOfferMap;\r\n    mapping(string => AgreementDraft) tenantAgreementMap;\r\n    // \r\n    uint private rentAmount;\r\n    address private rentToContractAddress;\r\n    RentToContract private rentToContract;\r\n\r\n    constructor(string memory landlordEmail, string memory streetName, int floorNr, int apartmentNr, int houseNr, int postalCode) public\r\n    {   // CREATE A NEW ENLISTMENT STRUCT OBJECT FROM THE PASSED IN ARGUMENTS \r\n        enlistment = Enlistment(streetName, floorNr, apartmentNr, houseNr, postalCode);\r\n        landlord = landlordEmail;\r\n        owner = msg.sender;\r\n    }\r\n\r\n    // GETTER FUNCTIONS \r\n\r\n    function getOwner() public view ownerOnly() returns (address) {\r\n        return owner;\r\n    }\r\n\r\n    function getLandlord() public view ownerOnly() returns (string memory) {\r\n        return landlord;\r\n    }\r\n\r\n    function getEnlistment() public view ownerOnly() returns (string memory, int, int, int, int) {\r\n        return (enlistment.streetName, enlistment.floorNr, enlistment.apartmentNr, enlistment.houseNr, enlistment.postalCode);\r\n    }\r\n\r\n    // MAIN ENUMERATIONS THE CONTRACT WILL BE WORKING WITH\r\n\r\n    enum OfferStatus { // CURRENT STATE OF ANY OFFER SUBMITTED FOR A PROPERTY\r\n        PENDING,\r\n        REJECTED,\r\n        CANCELLED,\r\n        ACCEPTED\r\n    }\r\n\r\n    enum AgreementStatus { // CURRENT STATE OF ANY AGREEMENT REGARDING AN OFFER\r\n        UNINITIALIZED, // internal\r\n        PENDING,\r\n        REJECTED,\r\n        CONFIRMED,\r\n        CANCELLED,\r\n        LANDLORD_SIGNED,\r\n        TENANT_SIGNED,\r\n        COMPLETED\r\n    }\r\n\r\n    // MAIN STRUCTS (Enlistment, Offer, AgreementDraft) THE CONTRACT WILL BE WORKING WITH\r\n    // NOTE: These could've been made separate Smart Contracts instead (would probably work better that way)\r\n\r\n    struct Enlistment {\r\n        string streetName;\r\n        int floorNr;\r\n        int apartmentNr;\r\n        int houseNr;\r\n        int postalCode;\r\n    }\r\n\r\n    struct Offer {\r\n        bool initialized;\r\n        int amount;\r\n        string tenantName;\r\n        string tenantEmail;\r\n        OfferStatus status;\r\n    }\r\n\r\n    struct AgreementDraft {\r\n        string landlordName; // for simplicity, there is only one landlord\r\n        string tenantName; // for simplicity, there is only one tenant and occupants are omitted\r\n        string tenantEmail;\r\n        int amount;\r\n        uint leaseStart;\r\n        uint handoverDate;\r\n        uint leasePeriod;\r\n        string otherTerms;\r\n        string agreementHash;\r\n        string landlordSignedHash;\r\n        string tenantSignedHash;\r\n        AgreementStatus status;\r\n    }\r\n\r\n    // MAIN MODIFIERS THE CONTRACT WILL BE WORKING WITH\r\n\r\n    modifier noActiveOffer(string memory tenantEmail) { // CHECKS IF THE TENANT (tenantEmail) INDEED HAS NO ACTIVE OFFER\r\n        require(tenantOfferMap[tenantEmail].initialized == false || tenantOfferMap[tenantEmail].status == OfferStatus.REJECTED || tenantOfferMap[tenantEmail].status == OfferStatus.CANCELLED);\r\n        _;\r\n    }\r\n\r\n    modifier offerExists(string memory tenantEmail) { // CHECKS IF THE TENANT (tenantEmail) HAS INDEED MADE AN OFFER\r\n        require(tenantOfferMap[tenantEmail].initialized == true);\r\n        _;\r\n    }\r\n\r\n    modifier offerInStatus(OfferStatus status, string memory tenantEmail) { // CONFIRMS STATUS OF THE OFFER IN QUESTION\r\n        require(tenantOfferMap[tenantEmail].status == status);\r\n        _;\r\n    }\r\n\r\n    modifier offerCancellable(string memory tenantEmail) { // CONFIRMS IF AN OFFER ISN'T ALREADY A DONE DEAL\r\n        OfferStatus offerStatus = tenantOfferMap[tenantEmail].status;\r\n        require(offerStatus == OfferStatus.PENDING || offerStatus == OfferStatus.ACCEPTED);\r\n        AgreementStatus agreementStatus = tenantAgreementMap[tenantEmail].status;\r\n        require(!(agreementStatus == AgreementStatus.CANCELLED || agreementStatus == AgreementStatus.TENANT_SIGNED || agreementStatus == AgreementStatus.COMPLETED));\r\n        _;\r\n    }\r\n\r\n    modifier agreementCanBeSubmitted(string memory tenantEmail) { // CONFIRMS IF THERE'S NO ACTIVE AGREEMENT AWAITING SIGNATURE CONSUMATION\r\n        require(tenantAgreementMap[tenantEmail].status == AgreementStatus.UNINITIALIZED || tenantAgreementMap[tenantEmail].status == AgreementStatus.REJECTED || tenantAgreementMap[tenantEmail].status == AgreementStatus.CANCELLED);\r\n        _;\r\n    }\r\n\r\n    modifier agreementInStatus(AgreementStatus status, string memory tenantEmail) {\r\n        require(tenantAgreementMap[tenantEmail].status == status); // VALIDATES THE AGREEMENT'S STATUS\r\n        _;\r\n    }\r\n\r\n    modifier agreementCancellable(string memory tenantEmail) { // CONFIRMS IF AN AGREEMENT ISN'T ALREADY A DONE DEAL (OR HASN'T BEEN REJECTED)\r\n        AgreementStatus agreementStatus = tenantAgreementMap[tenantEmail].status;\r\n        require(!(agreementStatus == AgreementStatus.CANCELLED || agreementStatus == AgreementStatus.TENANT_SIGNED || agreementStatus == AgreementStatus.COMPLETED || agreementStatus == AgreementStatus.REJECTED));\r\n        _;\r\n    }\r\n\r\n    modifier notLocked() {\r\n        require(!locked);\r\n        _;\r\n    }\r\n\r\n    modifier ownerOnly() {\r\n        require(msg.sender == owner);\r\n        _;\r\n    }\r\n\r\n    // what if the offer is in status PENDING and the tenant wants to send a new one?\r\n    // in a case like that, find a way to handle multiple pending offers simultaneously\r\n\r\n    function sendOffer(int amount, string memory tenantName, string memory tenantEmail) public payable\r\n        ownerOnly()\r\n        noActiveOffer(tenantEmail) // coz this modifier ensures that there's no active offer ..\r\n        notLocked()\r\n    {\r\n        Offer memory offer = Offer({\r\n            initialized: true,\r\n            amount: amount,\r\n            tenantName: tenantName,\r\n            tenantEmail: tenantEmail,\r\n            status: OfferStatus.PENDING\r\n        });\r\n        tenantOfferMap[tenantEmail] = offer;\r\n    }\r\n\r\n    // cancel an offer that has been submitted (and is cancellable)\r\n\r\n    function cancelOffer(string memory tenantEmail) public payable\r\n        ownerOnly()\r\n        offerExists(tenantEmail)\r\n        offerCancellable(tenantEmail)\r\n    {\r\n        tenantOfferMap[tenantEmail].status = OfferStatus.CANCELLED;\r\n        if (tenantAgreementMap[tenantEmail].status != AgreementStatus.UNINITIALIZED) {\r\n            tenantAgreementMap[tenantEmail].status = AgreementStatus.CANCELLED;\r\n        }\r\n        locked = false;\r\n    }\r\n\r\n    // get an offer that has been submitted (and is hasn't been cancelled yet)\r\n    \r\n    function getOffer(string memory tenantEmail) public view ownerOnly() returns (bool, int, string memory, string memory, OfferStatus) {\r\n        Offer storage o = tenantOfferMap[tenantEmail];\r\n        return (o.initialized, o.amount, o.tenantName, o.tenantEmail, o.status);\r\n    }\r\n\r\n    // review (accept / reject) an offer that has been submitted (and is pending)\r\n    \r\n    function reviewOffer(bool result, string memory tenantEmail) public payable\r\n        ownerOnly()\r\n        offerExists(tenantEmail)\r\n        offerInStatus(OfferStatus.PENDING, tenantEmail)\r\n    {\r\n        tenantOfferMap[tenantEmail].status = result ? OfferStatus.ACCEPTED : OfferStatus.REJECTED;\r\n    }\r\n\r\n    // submit the draft of an agreement (only if: the offer still exists & has been accepted, and an agreement can be submitted)\r\n    // a new draft agreement can submitted only if there isn't already 1 in place that has been signed, or awaiting confirmation\r\n    \r\n    function submitDraft(string memory tenantEmail, string memory landlordName, string memory agreementTenantName, string memory agreementTenantEmail, uint leaseStart, uint handoverDate, uint leasePeriod, string memory otherTerms, string memory hashStr) public payable\r\n        ownerOnly()\r\n        offerExists(tenantEmail)\r\n        offerInStatus(OfferStatus.ACCEPTED, tenantEmail)\r\n        agreementCanBeSubmitted(tenantEmail)\r\n    {\r\n        int256 amount = tenantOfferMap[tenantEmail].amount;\r\n        tenantAgreementMap[tenantEmail] = AgreementDraft(landlordName, agreementTenantName, agreementTenantEmail, amount, leaseStart, handoverDate, leasePeriod, otherTerms, hashStr, \"\", \"\", AgreementStatus.PENDING);\r\n    }\r\n\r\n    // getAgreement functions:\r\n    // can only return tuple of max 7 elements, otherwise throws \"Stack too deep\" \r\n    // solution: splitted into multiple functions - getAgreement + (Participants/Details/Hashes/Status)\r\n\r\n    function getAgreementParticipants(string memory tenantEmail) public view ownerOnly() returns (string memory, string memory, string memory) {\r\n        AgreementDraft storage a = tenantAgreementMap[tenantEmail];\r\n        return (a.landlordName, a.tenantName, a.tenantEmail);\r\n    }\r\n\r\n    function getAgreementDetails(string memory tenantEmail) public view ownerOnly() returns (int, uint, uint, uint, string memory) {\r\n        AgreementDraft storage a = tenantAgreementMap[tenantEmail];\r\n        return (a.amount, a.leaseStart, a.handoverDate, a.leasePeriod, a.otherTerms);\r\n    }\r\n\r\n    function getAgreementHashes(string memory tenantEmail) public view ownerOnly() returns (string memory, string memory, string memory) {\r\n        AgreementDraft storage a = tenantAgreementMap[tenantEmail];\r\n        return (a.agreementHash, a.landlordSignedHash, a.tenantSignedHash);\r\n    }\r\n\r\n    function getAgreementStatus(string memory tenantEmail) public view ownerOnly() returns (AgreementStatus) {\r\n        AgreementDraft storage a = tenantAgreementMap[tenantEmail];\r\n        return (a.status);\r\n    }\r\n\r\n    // review an agreement draft (only if: the offer still exists & has been accepted, and an agreement exists & is pending)\r\n    \r\n    function reviewAgreement(string memory tenantEmail, bool result) public payable\r\n        ownerOnly()\r\n        offerExists(tenantEmail)\r\n        offerInStatus(OfferStatus.ACCEPTED, tenantEmail)\r\n        agreementInStatus(AgreementStatus.PENDING, tenantEmail)\r\n    {\r\n        tenantAgreementMap[tenantEmail].status = result ? AgreementStatus.CONFIRMED : AgreementStatus.REJECTED;\r\n    }\r\n\r\n    // signing of an agreement draft by the landlord (only if: the offer still exists & has been accepted, and an agreement exists & is confirmed)\r\n    \r\n    function landlordSignAgreement(string memory tenantEmail, string memory landlordSignedHash) public payable\r\n        ownerOnly()\r\n        notLocked()\r\n        offerExists(tenantEmail)\r\n        offerInStatus(OfferStatus.ACCEPTED, tenantEmail)\r\n        agreementInStatus(AgreementStatus.CONFIRMED, tenantEmail)\r\n    {\r\n        tenantAgreementMap[tenantEmail].landlordSignedHash = landlordSignedHash;\r\n        tenantAgreementMap[tenantEmail].status = AgreementStatus.LANDLORD_SIGNED;\r\n        locked = true;\r\n    }\r\n\r\n    // signing of an agreement draft by the tenant (only if: the offer still exists & has been accepted, and an agreement exists & the landlord has signed already)\r\n\r\n    function tenantSignAgreement(string memory tenantEmail, string memory tenantSignedHash) public payable\r\n        ownerOnly()\r\n        offerExists(tenantEmail)\r\n        offerInStatus(OfferStatus.ACCEPTED, tenantEmail)\r\n        agreementInStatus(AgreementStatus.LANDLORD_SIGNED, tenantEmail)\r\n    {\r\n        tenantAgreementMap[tenantEmail].tenantSignedHash = tenantSignedHash;\r\n        tenantAgreementMap[tenantEmail].status = AgreementStatus.TENANT_SIGNED;\r\n    }\r\n\r\n    // cancelling of an agreement draft by the tenant (only if the agreement is cancellable ie. it exists, but the landlord hasn't already signed it)\r\n\r\n    function cancelAgreement(string memory tenantEmail) public payable\r\n        ownerOnly()\r\n        agreementCancellable(tenantEmail)\r\n    {\r\n        tenantAgreementMap[tenantEmail].status = AgreementStatus.CANCELLED;\r\n        locked = false;\r\n    }\r\n\r\n    // receiving the 1st month rent from the tenant (only if the agreement has been signed by both parties ie. the landlord and the tenant)\r\n\r\n    function receiveFirstMonthRent(string memory tenantEmail) public payable\r\n        ownerOnly()\r\n        offerExists(tenantEmail)\r\n        offerInStatus(OfferStatus.ACCEPTED, tenantEmail)\r\n        agreementInStatus(AgreementStatus.TENANT_SIGNED, tenantEmail)\r\n    {\r\n        tenantAgreementMap[tenantEmail].status = AgreementStatus.COMPLETED;\r\n        \r\n        // EITHER TRY THIS TO INSTANTIATE THE RentToContract.sol SMART CONTRACT ..\r\n        // rentToContractAddress = new RentToContract(tenantEmail, tenantAgreementMap[tenantEmail].tenantName, \r\n        // tenantAgreementMap[tenantEmail].landlordName, 100, 1000000000000); \r\n        // rentToContract = RentToContract(rentToContractAddress);\r\n        // \r\n        // OR, JUST TRY THIS INSTEAD .. ..\r\n        // rentToContract = new RentToContract(tenantEmail, tenantAgreementMap[tenantEmail].tenantName, \r\n        // tenantAgreementMap[tenantEmail].landlordName, 100, 1000000000000); \r\n\r\n        // EVENTUALLY, THE RENT AMOUNT & THE CONTRACT'S DURATION MUST BOTH BE MADE DYNAMIC \r\n    }\r\n    \r\n    function receiveMonthlyRent(string memory tenantEmail, uint amount) public payable\r\n        ownerOnly()\r\n        offerExists(tenantEmail)\r\n        offerInStatus(OfferStatus.ACCEPTED, tenantEmail)\r\n        agreementInStatus(AgreementStatus.COMPLETED, tenantEmail)\r\n    {\r\n        rentAmount = amount; // WORK WITH RENT amount\r\n        // rentToContract.receiveMonthlyRent(tenantEmail, amount);\r\n    }\r\n\r\n}\r\n\r\n",
  "sourcePath": "C:/Users/thanm/real-estate-blockchain/ethereum/contracts/EnlistmentToContract.sol",
  "compiler": {
    "name": "solc",
    "version": "0.5.16+commit.9c3226ce.Emscripten.clang"
  },
  "schemaVersion": "3.4.1",
  "updatedAt": "2021-06-27T03:53:57.306Z",
  "networkType": "ethereum",
  "devdoc": {
    "methods": {}
  },
  "userdoc": {
    "methods": {}
  }
}