{
  "contractName": "RentToContract",
  "abi": [
    {
      "inputs": [
        {
          "internalType": "string",
          "name": "tenantEmail",
          "type": "string"
        },
        {
          "internalType": "string",
          "name": "tenantName",
          "type": "string"
        },
        {
          "internalType": "string",
          "name": "landlordName",
          "type": "string"
        },
        {
          "internalType": "uint256",
          "name": "amount",
          "type": "uint256"
        },
        {
          "internalType": "uint256",
          "name": "duration",
          "type": "uint256"
        }
      ],
      "payable": false,
      "stateMutability": "nonpayable",
      "type": "constructor"
    },
    {
      "anonymous": false,
      "inputs": [
        {
          "indexed": false,
          "internalType": "string",
          "name": "tenantEmail",
          "type": "string"
        },
        {
          "indexed": false,
          "internalType": "uint256",
          "name": "paymentDate",
          "type": "uint256"
        },
        {
          "indexed": false,
          "internalType": "uint256",
          "name": "amount",
          "type": "uint256"
        }
      ],
      "name": "RentPaymentMade",
      "type": "event"
    },
    {
      "payable": true,
      "stateMutability": "payable",
      "type": "fallback"
    },
    {
      "constant": true,
      "inputs": [],
      "name": "circuitBreakerStopped",
      "outputs": [
        {
          "internalType": "bool",
          "name": "",
          "type": "bool"
        }
      ],
      "payable": false,
      "stateMutability": "view",
      "type": "function"
    },
    {
      "constant": true,
      "inputs": [],
      "name": "getOwner",
      "outputs": [
        {
          "internalType": "address",
          "name": "",
          "type": "address"
        }
      ],
      "payable": false,
      "stateMutability": "view",
      "type": "function"
    },
    {
      "constant": true,
      "inputs": [],
      "name": "getLandlord",
      "outputs": [
        {
          "internalType": "string",
          "name": "",
          "type": "string"
        }
      ],
      "payable": false,
      "stateMutability": "view",
      "type": "function"
    },
    {
      "constant": true,
      "inputs": [],
      "name": "getTenant",
      "outputs": [
        {
          "internalType": "string",
          "name": "",
          "type": "string"
        }
      ],
      "payable": false,
      "stateMutability": "view",
      "type": "function"
    },
    {
      "constant": true,
      "inputs": [],
      "name": "getTotalRentPaid",
      "outputs": [
        {
          "internalType": "uint256",
          "name": "",
          "type": "uint256"
        }
      ],
      "payable": false,
      "stateMutability": "view",
      "type": "function"
    },
    {
      "constant": true,
      "inputs": [],
      "name": "getNumberOfPayments",
      "outputs": [
        {
          "internalType": "uint256",
          "name": "",
          "type": "uint256"
        }
      ],
      "payable": false,
      "stateMutability": "view",
      "type": "function"
    },
    {
      "constant": true,
      "inputs": [],
      "name": "getRent",
      "outputs": [
        {
          "internalType": "string",
          "name": "",
          "type": "string"
        },
        {
          "internalType": "string",
          "name": "",
          "type": "string"
        },
        {
          "internalType": "uint256",
          "name": "",
          "type": "uint256"
        },
        {
          "internalType": "uint256",
          "name": "",
          "type": "uint256"
        }
      ],
      "payable": false,
      "stateMutability": "view",
      "type": "function"
    },
    {
      "constant": false,
      "inputs": [
        {
          "internalType": "string",
          "name": "tenantEmail",
          "type": "string"
        },
        {
          "internalType": "uint256",
          "name": "amount",
          "type": "uint256"
        }
      ],
      "name": "receiveMonthlyRent",
      "outputs": [],
      "payable": true,
      "stateMutability": "payable",
      "type": "function"
    },
    {
      "constant": false,
      "inputs": [],
      "name": "killContract",
      "outputs": [],
      "payable": false,
      "stateMutability": "nonpayable",
      "type": "function"
    }
  ],
  "bytecode": "0x608060405260008060006101000a81548160ff0219169083151502179055503480156200002b57600080fd5b5060405162001b1538038062001b15833981810160405260a08110156200005157600080fd5b81019080805160405193929190846401000000008211156200007257600080fd5b838201915060208201858111156200008957600080fd5b8251866001820283011164010000000082111715620000a757600080fd5b8083526020830192505050908051906020019080838360005b83811015620000dd578082015181840152602081019050620000c0565b50505050905090810190601f1680156200010b5780820380516001836020036101000a031916815260200191505b50604052602001805160405193929190846401000000008211156200012f57600080fd5b838201915060208201858111156200014657600080fd5b82518660018202830111640100000000821117156200016457600080fd5b8083526020830192505050908051906020019080838360005b838110156200019a5780820151818401526020810190506200017d565b50505050905090810190601f168015620001c85780820380516001836020036101000a031916815260200191505b5060405260200180516040519392919084640100000000821115620001ec57600080fd5b838201915060208201858111156200020357600080fd5b82518660018202830111640100000000821117156200022157600080fd5b8083526020830192505050908051906020019080838360005b83811015620002575780820151818401526020810190506200023a565b50505050905090810190601f168015620002855780820380516001836020036101000a031916815260200191505b50604052602001805190602001909291908051906020019092919050505080420160018190555033600060016101000a81548173ffffffffffffffffffffffffffffffffffffffff021916908373ffffffffffffffffffffffffffffffffffffffff16021790555083600390805190602001906200030592919062000696565b5082600290805190602001906200031e92919062000696565b50620003296200071d565b60405180606001604052808781526020014281526020018481525090506040518060c001604052808581526020018681526020018781526020018281526020018260200151815260200160015481525060056000820151816000019080519060200190620003999291906200073e565b506020820151816001019080519060200190620003b89291906200073e565b506040820151816002019080519060200190620003d79291906200073e565b506060820151816003016000820151816000019080519060200190620003ff9291906200073e565b50602082015181600101556040820151816002015550506080820151816006015560a082015181600701559050506005600f876040518082805190602001908083835b6020831062000467578051825260208201915060208101905060208303925062000442565b6001836020036101000a038019825116818451168082178552505050505050905001915050908152602001604051809103902060008201816000019080546001816001161561010002031660029004620004c3929190620007c5565b5060018201816001019080546001816001161561010002031660029004620004ed929190620007c5565b506002820181600201908054600181600116156101000203166002900462000517929190620007c5565b5060038201816003016000820181600001908054600181600116156101000203166002900462000549929190620007c5565b50600182015481600101556002820154816002015550506006820154816006015560078201548160070155905050600d81908060018154018082558091505090600182039060005260206000209060030201600090919290919091506000820151816000019080519060200190620005c39291906200073e565b506020820151816001015560408201518160020155505050620005fb81604001516004546200060d60201b620011071790919060201c565b6004819055505050505050506200087b565b6000808284019050838110156200068c576040517f08c379a000000000000000000000000000000000000000000000000000000000815260040180806020018281038252601b8152602001807f536166654d6174683a206164646974696f6e206f766572666c6f77000000000081525060200191505060405180910390fd5b8091505092915050565b828054600181600116156101000203166002900490600052602060002090601f016020900481019282601f10620006d957805160ff19168380011785556200070a565b828001600101855582156200070a579182015b8281111562000709578251825591602001919060010190620006ec565b5b50905062000719919062000853565b5090565b60405180606001604052806060815260200160008152602001600081525090565b828054600181600116156101000203166002900490600052602060002090601f016020900481019282601f106200078157805160ff1916838001178555620007b2565b82800160010185558215620007b2579182015b82811115620007b157825182559160200191906001019062000794565b5b509050620007c1919062000853565b5090565b828054600181600116156101000203166002900490600052602060002090601f016020900481019282601f1062000800578054855562000840565b828001600101855582156200084057600052602060002091601f016020900482015b828111156200083f57825482559160010191906001019062000822565b5b5090506200084f919062000853565b5090565b6200087891905b80821115620008745760008160009055506001016200085a565b5090565b90565b61128a806200088b6000396000f3fe6080604052600436106100865760003560e01c8063893d20e811610059578063893d20e814610185578063af908f3f146101dc578063d6ce41121461020b578063e0719564146102d0578063f502236d146103da57610086565b80630b3bb024146100885780631c02708d14610118578063522957231461012f5780637915d3281461015a575b005b34801561009457600080fd5b5061009d61046a565b6040518080602001828103825283818151815260200191508051906020019080838360005b838110156100dd5780820151818401526020810190506100c2565b50505050905090810190601f16801561010a5780820380516001836020036101000a031916815260200191505b509250505060405180910390f35b34801561012457600080fd5b5061012d610566565b005b34801561013b57600080fd5b506101446105fb565b6040518082815260200191505060405180910390f35b34801561016657600080fd5b5061016f610661565b6040518082815260200191505060405180910390f35b34801561019157600080fd5b5061019a6106c4565b604051808273ffffffffffffffffffffffffffffffffffffffff1673ffffffffffffffffffffffffffffffffffffffff16815260200191505060405180910390f35b3480156101e857600080fd5b506101f1610747565b604051808215151515815260200191505060405180910390f35b6102ce6004803603604081101561022157600080fd5b810190808035906020019064010000000081111561023e57600080fd5b82018360208201111561025057600080fd5b8035906020019184600183028401116401000000008311171561027257600080fd5b91908080601f016020809104026020016040519081016040528093929190818152602001838380828437600081840152601f19601f82011690508083019250505050505050919291929080359060200190929190505050610759565b005b3480156102dc57600080fd5b506102e5610e2c565b604051808060200180602001858152602001848152602001838103835287818151815260200191508051906020019080838360005b8381101561033557808201518184015260208101905061031a565b50505050905090810190601f1680156103625780820380516001836020036101000a031916815260200191505b50838103825286818151815260200191508051906020019080838360005b8381101561039b578082015181840152602081019050610380565b50505050905090810190601f1680156103c85780820380516001836020036101000a031916815260200191505b50965050505050505060405180910390f35b3480156103e657600080fd5b506103ef610fe8565b6040518080602001828103825283818151815260200191508051906020019080838360005b8381101561042f578082015181840152602081019050610414565b50505050905090810190601f16801561045c5780820380516001836020036101000a031916815260200191505b509250505060405180910390f35b6060600060019054906101000a900473ffffffffffffffffffffffffffffffffffffffff1673ffffffffffffffffffffffffffffffffffffffff163373ffffffffffffffffffffffffffffffffffffffff16146104c657600080fd5b60038054600181600116156101000203166002900480601f01602080910402602001604051908101604052809291908181526020018280546001816001161561010002031660029004801561055c5780601f106105315761010080835404028352916020019161055c565b820191906000526020600020905b81548152906001019060200180831161053f57829003601f168201915b5050505050905090565b600060019054906101000a900473ffffffffffffffffffffffffffffffffffffffff1673ffffffffffffffffffffffffffffffffffffffff163373ffffffffffffffffffffffffffffffffffffffff16146105c057600080fd5b600060019054906101000a900473ffffffffffffffffffffffffffffffffffffffff1673ffffffffffffffffffffffffffffffffffffffff16ff5b60008060019054906101000a900473ffffffffffffffffffffffffffffffffffffffff1673ffffffffffffffffffffffffffffffffffffffff163373ffffffffffffffffffffffffffffffffffffffff161461065657600080fd5b600d80549050905090565b60008060019054906101000a900473ffffffffffffffffffffffffffffffffffffffff1673ffffffffffffffffffffffffffffffffffffffff163373ffffffffffffffffffffffffffffffffffffffff16146106bc57600080fd5b600454905090565b60008060019054906101000a900473ffffffffffffffffffffffffffffffffffffffff1673ffffffffffffffffffffffffffffffffffffffff163373ffffffffffffffffffffffffffffffffffffffff161461071f57600080fd5b600060019054906101000a900473ffffffffffffffffffffffffffffffffffffffff16905090565b6000809054906101000a900460ff1681565b600060019054906101000a900473ffffffffffffffffffffffffffffffffffffffff1673ffffffffffffffffffffffffffffffffffffffff163373ffffffffffffffffffffffffffffffffffffffff16146107b357600080fd5b6107bb6110e4565b610e2857806107c9816110f0565b5082606060056002018054600181600116156101000203166002900480601f0160208091040260200160405190810160405280929190818152602001828054600181600116156101000203166002900480156108665780601f1061083b57610100808354040283529160200191610866565b820191906000526020600020905b81548152906001019060200180831161084957829003601f168201915b505050505090506060600f836040518082805190602001908083835b602083106108a55780518252602082019150602081019050602083039250610882565b6001836020036101000a03801982511681845116808217855250505050505090500191505090815260200160405180910390206001018054600181600116156101000203166002900480601f01602080910402602001604051908101604052809291908181526020018280546001816001161561010002031660029004801561096f5780601f106109445761010080835404028352916020019161096f565b820191906000526020600020905b81548152906001019060200180831161095257829003601f168201915b50505050509050606060038054600181600116156101000203166002900480601f016020809104026020016040519081016040528092919081815260200182805460018160011615610100020316600290048015610a0e5780601f106109e357610100808354040283529160200191610a0e565b820191906000526020600020905b8154815290600101906020018083116109f157829003601f168201915b50505050509050826040516020018082805190602001908083835b60208310610a4c5780518252602082019150602081019050602083039250610a29565b6001836020036101000a03801982511681845116808217855250505050505090500191505060405160208183030381529060405280519060200120846040516020018082805190602001908083835b60208310610abe5780518252602082019150602081019050602083039250610a9b565b6001836020036101000a0380198251168184511680821785525050505050509050019150506040516020818303038152906040528051906020012014610b6c576040517f08c379a00000000000000000000000000000000000000000000000000000000081526004018080602001828103825260148152602001807f4e4f54205448452052494748542054454e414e5400000000000000000000000081525060200191505060405180910390fd5b816040516020018082805190602001908083835b60208310610ba35780518252602082019150602081019050602083039250610b80565b6001836020036101000a03801982511681845116808217855250505050505090500191505060405160208183030381529060405280519060200120816040516020018082805190602001908083835b60208310610c155780518252602082019150602081019050602083039250610bf2565b6001836020036101000a0380198251168184511680821785525050505050509050019150506040516020818303038152906040528051906020012014610cc3576040517f08c379a00000000000000000000000000000000000000000000000000000000081526004018080602001828103825260148152602001807f4e4f54205448452052494748542054454e414e5400000000000000000000000081525060200191505060405180910390fd5b610ccb61118f565b6040518060600160405280898152602001428152602001888152509050600d81908060018154018082558091505090600182039060005260206000209060030201600090919290919091506000820151816000019080519060200190610d329291906111b0565b506020820151816001015560408201518160020155505050610d63816040015160045461110790919063ffffffff16565b6004819055507fc0c44e71b116e1f49f140c0af676d78bcbf56d7a7a3fba7ecaa5eb76a477ee4a8160000151826020015183604001516040518080602001848152602001838152602001828103825285818151815260200191508051906020019080838360005b83811015610de5578082015181840152602081019050610dca565b50505050905090810190601f168015610e125780820380516001836020036101000a031916815260200191505b5094505050505060405180910390a15050505050505b5050565b606080600080600060019054906101000a900473ffffffffffffffffffffffffffffffffffffffff1673ffffffffffffffffffffffffffffffffffffffff163373ffffffffffffffffffffffffffffffffffffffff1614610e8c57600080fd5b60056000016005600101600560060154600560070154838054600181600116156101000203166002900480601f016020809104026020016040519081016040528092919081815260200182805460018160011615610100020316600290048015610f375780601f10610f0c57610100808354040283529160200191610f37565b820191906000526020600020905b815481529060010190602001808311610f1a57829003601f168201915b50505050509350828054600181600116156101000203166002900480601f016020809104026020016040519081016040528092919081815260200182805460018160011615610100020316600290048015610fd35780601f10610fa857610100808354040283529160200191610fd3565b820191906000526020600020905b815481529060010190602001808311610fb657829003601f168201915b50505050509250935093509350935090919293565b6060600060019054906101000a900473ffffffffffffffffffffffffffffffffffffffff1673ffffffffffffffffffffffffffffffffffffffff163373ffffffffffffffffffffffffffffffffffffffff161461104457600080fd5b60028054600181600116156101000203166002900480601f0160208091040260200160405190810160405280929190818152602001828054600181600116156101000203166002900480156110da5780601f106110af576101008083540402835291602001916110da565b820191906000526020600020905b8154815290600101906020018083116110bd57829003601f168201915b5050505050905090565b60006001544211905090565b6000808214156110ff57600080fd5b819050919050565b600080828401905083811015611185576040517f08c379a000000000000000000000000000000000000000000000000000000000815260040180806020018281038252601b8152602001807f536166654d6174683a206164646974696f6e206f766572666c6f77000000000081525060200191505060405180910390fd5b8091505092915050565b60405180606001604052806060815260200160008152602001600081525090565b828054600181600116156101000203166002900490600052602060002090601f016020900481019282601f106111f157805160ff191683800117855561121f565b8280016001018555821561121f579182015b8281111561121e578251825591602001919060010190611203565b5b50905061122c9190611230565b5090565b61125291905b8082111561124e576000816000905550600101611236565b5090565b9056fea265627a7a72315820c19b313888fb877ecb582e7a1713dd3ae699c2ed2cfa4ff145cbadd9b311427364736f6c63430005100032",
  "source": "pragma solidity ^0.5.0;\r\n\r\n\r\n// import \"github.com/oraclize/ethereum-api/oraclizeAPI.sol\"; // ORACLIZE LIBRARY TO BE INTEGRATED SOON ..\r\nimport \"./SafeMath.sol\"; // LIBRARY TO MAKE SAFE MATHEMATICAL CALCULATIONS IN THIS CONTRACT\r\n\r\n\r\n// contract RentToContract is usingOraclize {\r\ncontract RentToContract {\r\n   \r\n  /* // ALL THE STUFF YOU'LL NEED TO INTEGRATE WITH ORACLIZE, USING Provable\r\n  uint public balance;\r\n\r\n  event Log(string text);\r\n  \r\n\r\n  function __callback(bytes32 _myid, string memory _result) {\r\n      require (msg.sender == oraclize_cbAddress());\r\n      Log(_result);\r\n      price = parseInt(_result, 2); // let's save it as $ cents\r\n  }\r\n  \r\n  function updatePrice() public payable {\r\n    emit Log(\"Oraclize query was sent, waiting for the answer..\");\r\n    oraclize_query(\"URL\",\"json(https://min-api.cryptocompare.com/data/price?fsym=ETH&tsyms=USD).USD\");\r\n    \r\n    if (oraclize_getPrice(\"URL\") > balance) {\r\n      emit Log(\"Oraclize query was NOT sent, please add some ETH to cover for the query fee\");\r\n    } else {\r\n      emit Log(\"Oraclize query was sent, standing by for the answer..\");\r\n      oraclize_query(\"URL\", \"json(https://api.pro.coinbase.com/products/ETH-USD/ticker).price\");\r\n    }\r\n  }\r\n  */\r\n\r\n  using SafeMath for uint;\r\n  \r\n  bool public circuitBreakerStopped = false;\r\n  address owner;\r\n  uint contractExpired; // THE RENT EXPIRATION DATE \r\n  // \r\n  string landlord;\r\n  string tenant;\r\n  uint totalRentPaid;\r\n  Rent rentSetup;\r\n  RentPayment[] payments;\r\n  // \r\n  mapping(address => bool) admins;\r\n  mapping(string => Rent) rentSetupMap;\r\n\r\n  // GETTER FUNCTIONS \r\n\r\n  function getOwner() public view ownerOnly() returns (address) {\r\n    return owner;\r\n  }\r\n\r\n  function getLandlord() public view ownerOnly() returns (string memory) {\r\n    return landlord;\r\n  }\r\n\r\n  function getTenant() public view ownerOnly() returns (string memory) {\r\n    return tenant;\r\n  }\r\n\r\n  function getTotalRentPaid() public view ownerOnly() returns (uint) {\r\n    return totalRentPaid;\r\n  }\r\n\r\n  function getNumberOfPayments() public view ownerOnly() returns (uint) {\r\n    return payments.length;\r\n  }\r\n\r\n  function getRent() public view ownerOnly() returns (string memory, string memory, uint, uint) {\r\n    return (rentSetup.landlordName, rentSetup.tenantName, rentSetup.firstPaymentDate, rentSetup.rentExpirationDate);\r\n  }\r\n  // \r\n  event RentPaymentMade(string tenantEmail, uint paymentDate, uint amount);\r\n  // \r\n  struct Rent {\r\n    string landlordName;\r\n    string tenantName;\r\n    string tenantEmail;\r\n    RentPayment firstPayment;\r\n    uint firstPaymentDate;\r\n    uint rentExpirationDate;\r\n  }\r\n\r\n  struct RentPayment {\r\n    string tenantEmail;\r\n    uint paymentDate;\r\n    uint amount;\r\n  }\r\n\r\n  modifier validateTenant(string memory tenantEmail) { // CHECKS IF THE TENANT (tenantEmail) INDEED IN THE RENT PAYER\r\n    string memory te = rentSetup.tenantEmail;\r\n    string memory tn = rentSetupMap[tenantEmail].tenantName;\r\n    string memory mainTn = tenant;\r\n    require((keccak256(abi.encodePacked(tenantEmail)) == keccak256(abi.encodePacked(te))), \"NOT THE RIGHT TENANT\");\r\n    require((keccak256(abi.encodePacked(mainTn)) == keccak256(abi.encodePacked(tn))), \"NOT THE RIGHT TENANT\");\r\n    _;\r\n  }\r\n  \r\n  modifier validateAmount(uint amount) { // CHECKS IF THE AMOUNT IS HIGHER THAN 0\r\n    throwsErrorIfZero(amount); // NO NEED TO WORK WITH THE RETURN VALUE FOR NOW ..\r\n    _;\r\n  }\r\n\r\n  function throwsErrorIfZero(uint num) private pure returns (uint) {\r\n    require(num != 0);\r\n    return num;\r\n  }\r\n\r\n  modifier isNotDeprecated {\r\n    if(!rentContractExpired()) _;\r\n  }\r\n\r\n  modifier isDeprecated {\r\n    if(rentContractExpired()) _;\r\n  }\r\n\r\n  function rentContractExpired() private view returns (bool) {\r\n    return now > contractExpired;\r\n  }\r\n\r\n  modifier ownerOnly() {\r\n    require(msg.sender == owner);\r\n    _;\r\n  }\r\n\r\n  modifier onlyAdmin {\r\n    require(admins[msg.sender] == true, \"NOT AN ADMIN\");\r\n    _;\r\n  }\r\n\r\n  function addAdmin(address _a) private onlyAdmin returns (bool) {\r\n    admins[_a] = true;\r\n    return true;\r\n  }\r\n\r\n  modifier stopInEmergency { require(!circuitBreakerStopped, \"...\"); _; }\r\n  modifier onlyInEmergency { require(circuitBreakerStopped, \"...\"); _; }\r\n  \r\n  /* SAMPLE FUNCTIONS TO TEST THE CIRCUIT BREAKER DESIGN PATTERN ..\r\n  function deposit() public stopInEmergency {}\r\n  function withdraw() public onlyInEmergency {} \r\n  */\r\n\r\n\r\n  constructor(string memory tenantEmail, string memory tenantName, string memory landlordName, uint amount, uint duration) public {\r\n    contractExpired = now + duration; // SET THE RENT duration AS THE DATE THAT THIS CONTRACT TO EXPIRE (Auto Deprecate Design Pattern)\r\n    owner = msg.sender; \r\n    // addAdmin(msg.sender);\r\n    tenant = tenantName; landlord = landlordName;\r\n    RentPayment memory payment1 = RentPayment({\r\n      tenantEmail: tenantEmail,\r\n      paymentDate: now,\r\n      amount: amount\r\n    }); // SETUP THE FIRST RENT PAYMENT OBJECT\r\n    rentSetup = Rent({\r\n      tenantEmail: tenantEmail,\r\n      tenantName: tenantName,\r\n      landlordName: landlordName,\r\n      firstPayment: payment1,\r\n      firstPaymentDate: payment1.paymentDate,\r\n      rentExpirationDate: contractExpired\r\n    }); // SETUP THE RENT OBJECT\r\n    rentSetupMap[tenantEmail] = rentSetup; // DO THIS IN CASE IN FUTURE, YOU'LL WANT TO MANAGE MULTIPLE RENT SETUPS\r\n    payments.push(payment1); // LET'S NOT emit THE RentPaymentMade EVENT ON THE 1ST PAYMENT\r\n    totalRentPaid = totalRentPaid.add(payment1.amount);\r\n  }\r\n\r\n  function receiveMonthlyRent(string memory tenantEmail, uint amount) public payable\r\n    ownerOnly() \r\n    // onlyAdmin()\r\n    isNotDeprecated() \r\n    validateAmount(amount)\r\n    validateTenant(tenantEmail) \r\n  { // WHEN EXPANDING THE PLATFORM, THIS FUNCTION SHOULD BE ABLE TO RECEIVE RENT IN ETHER TOO ..\r\n    RentPayment memory payment = RentPayment({\r\n      tenantEmail: tenantEmail,\r\n      paymentDate: now,\r\n      amount: amount\r\n    }); // SETUP A RENT PAYMENT OBJECT\r\n    payments.push(payment); // ADD RENT payment, THEN EMIT THE RentPaymentMade EVENT\r\n    totalRentPaid = totalRentPaid.add(payment.amount);\r\n    emit RentPaymentMade(payment.tenantEmail, payment.paymentDate, payment.amount);\r\n  }\r\n\r\n  function killContract() public ownerOnly() {\r\n    selfdestruct(address(uint160(owner))); // TAKES AN ADDRESS OF CONTRACT TO KILL\r\n  }\r\n\r\n  // FALLBACK FUNCTION TO RUN WHENEVER THERE'S SOME KINDA ISSUE ..\r\n  function () external payable { // NO function name, params, or return values ..\r\n      /* THIS FALLBACK FUNCTION WILL EXECUTE IF THE CLIENT CALLS A FUNCTION\r\n        THAT DOESN'T EXIST IN THIS CONTRACT (i.e. funct's identifier isn't defined)\r\n        CONTRACTS CAN HAVE ONLY 1 FALLBACK FUNCTION\r\n        AUTOMATICALLY HAS A GAS LIMIT OF 2300, \r\n        MAKE FALLBACK FUNCTIONS AS CHEAP AS POSSIBLE\r\n      */\r\n  }\r\n\r\n}\r\n",
  "sourcePath": "C:/Users/thanm/real-estate-blockchain/ethereum/contracts/RentToContract.sol",
  "compiler": {
    "name": "solc",
    "version": "0.5.16+commit.9c3226ce.Emscripten.clang"
  },
  "schemaVersion": "3.4.1",
  "updatedAt": "2021-06-27T03:53:57.329Z",
  "networkType": "ethereum",
  "devdoc": {
    "methods": {}
  },
  "userdoc": {
    "methods": {}
  }
}